:100000000C94E1000C9409010C9409010C94220752
:100010000C9422070C9422070C9409010C94FE0501
:100020000C9409010C9409010C9409010C94090128
:100030000C9409010C9409010C9409010C94090118
:100040000C94D8060C9409010C94A6060C94800616
:100050000C9409010C9409010C9409010C940901F8
:100060000C9409010C94090100407A10F35A00A085
:10007000724E18090010A5D4E80000E87648170071
:1000800000E40B54020000CA9A3B000000E1F505B1
:10009000000080969800000040420F000000A086FB
:1000A00001000000102700000000E803000000002D
:1000B0006400000000000A000000000001000000D1
:1000C00000002C76D888DC674F0823DFC1DFAE59EB
:1000D000E1B1B796E5E3E453C63AE651997696E87E
:1000E000E6C28426EB898C9B62ED407C6FFCEFBC02
:1000F0009C9F40F2BAA56FA5F490055A2AF75C932D
:100100006B6CF9676DC11BFCE0E40D47FEF520E662
:10011000B500D0ED902E0300943577050080841E45
:10012000080000204E0A000000C80C333333330FA0
:10013000986E12831141EF8D2114893BE65516CF3D
:10014000FEE6DB18D1844B381BF77C1D901DA4BB49
:10015000E424203284725E228100C9F124ECA1E5FE
:100160003D2700000000240027002A0000000008AE
:10017000000201000003040700000000000000006E
:1001800002000000002300260029000000000025D6
:100190000028002B000404040404040404020202E6
:1001A00002020203030303030301020408102040B8
:1001B00080010204081020010204081020009A07A0
:1001C000430C11241FBECFEFD8E0DEBFCDBF23E02C
:1001D000A0EEB1E001C01D92AC32B207E1F711E030
:1001E000A0E0B1E0E2E7F5E202C005900D92A03E8A
:1001F000B107D9F710E0C0EED0E004C02197FE01AE
:100200000E94B410CF3DD107C9F70E9480080C941A
:10021000AC120C9400000895AF92BF92CF92DF927F
:10022000EF92FF920F931F93CF93DF936C017B01AB
:100230008B01040F151FEB015E01AE18BF08C0173C
:10024000D10759F06991D601ED91FC910190F081AF
:10025000E02DC6010995892B79F7C501DF91CF9172
:100260001F910F91FF90EF90DF90CF90BF90AF90D4
:100270000895FC01538D448D252F30E0842F90E0AC
:10028000821B930B541710F0CF9608950197089591
:10029000FC01918D828D981761F0A28DAE0FBF2F5A
:1002A000B11D5D968C91928D9F5F9F73928F90E0B0
:1002B00008958FEF9FEF0895FC01918D828D98171F
:1002C00031F0828DE80FF11D858D90E008958FEF5C
:1002D0009FEF0895FC01918D228D892F90E0805C25
:1002E0009F4F821B91098F73992708958EE492E0A6
:1002F0000E946A0121E0892B09F420E0822F0895F1
:1003000080E090E0892B29F00E94760181110C9405
:1003100000000895FC01A48DA80FB92FB11DA35AA8
:10032000BF4F2C91848D90E001968F739927848F15
:10033000A689B7892C93A089B1898C918370806438
:100340008C93938D848D981306C00288F389E02DD9
:1003500080818F7D80830895EF92FF920F931F938A
:10036000CF93DF93EC0181E0888F9B8D8C8D981368
:100370001AC0E889F989808185FF15C09FB7F89474
:10038000EE89FF896083E889F989808183708064C0
:1003900080839FBF81E090E0DF91CF911F910F910B
:1003A000FF90EF900895F62E0B8D10E00F5F1F4F1A
:1003B0000F731127E02E8C8D8E110CC00FB607FC29
:1003C000FACFE889F989808185FFF5CFCE010E94B7
:1003D0008A01F1CFEB8DEC0FFD2FF11DE35AFF4F9A
:1003E000F0829FB7F8940B8FEA89FB898081806245
:1003F000CFCFCF93DF93EC01888D8823B9F0AA8902
:10040000BB89E889F9898C9185FD03C0808186FDCF
:100410000DC00FB607FCF7CF8C9185FFF2CF80811E
:1004200085FFEDCFCE010E948A01E9CFDF91CF9108
:10043000089590E0FC01E459FE4F2491FC01E7553A
:10044000FE4F3491FC01EB56FE4FE491EE23C9F0D0
:10045000222339F0233001F1A8F4213019F12230A0
:1004600029F1F0E0EE0FFF1FE557FE4FA591B49183
:100470008FB7F894EC91611126C030953E233C93E0
:100480008FBF08952730A9F02830C9F0243049F7EC
:10049000809180008F7D03C0809180008F77809352
:1004A0008000DFCF84B58F7784BDDBCF84B58F7DAF
:1004B000FBCF8091B0008F778093B000D2CF809136
:1004C000B0008F7DF9CF3E2BDACFCF93DF9390E052
:1004D000FC01E755FE4F24918B569E4FFC01849101
:1004E0008823D1F090E0880F991FFC01EE59FE4F50
:1004F000A591B491FC01E557FE4FC591D4916111CE
:100500000EC09FB7F8948C91E22FE0958E238C93C8
:100510002881E223E8839FBFDF91CF9108958FB7B1
:10052000F894EC91E22BEC938FBFF6CF8E50806461
:1005300080937C0080917A00806480937A0080911F
:100540007A0086FDFCCF8091780090917900089523
:100550003FB7F8948091290290912A02A0912B0232
:10056000B0912C0226B5A89B05C02F3F19F001962B
:10057000A11DB11D3FBFBA2FA92F982F8827BC01FD
:10058000CD01620F711D811D911D42E0660F771F25
:10059000881F991F4A95D1F708958F929F92AF9225
:1005A000BF92CF92DF92EF92FF924B015C010E94CB
:1005B000A8026B017C010E94A8026C197D098E09BA
:1005C0009F09683E734081059105A8F321E0821AD6
:1005D0009108A108B10888EEC80E83E0D81EE11C7E
:1005E000F11C81149104A104B10429F7FF90EF904C
:1005F000DF90CF90BF90AF909F908F900895209103
:100600002F02309130022817390771F490912D0292
:1006100080912E02981741F0E0912D02F0E0EC510C
:10062000FE4F808190E008958FEF9FEF0895089529
:10063000EF92FF920F931F93CF93DF93DC015C96B1
:10064000ED90FC905D97E114F10479F481E090E085
:1006500013969C938E93129790E080E0DF91CF9158
:100660001F910F91FF90EF9008955196ED91FC919D
:10067000529750968C915097982F90950FB75E9601
:100680002C915E97122F127021FD6095F8942081B5
:10069000112319F1282B2083E7012197F1F728E096
:1006A000462F50E0308160FF1AC0382B3083E701BD
:1006B0002197F1F7BA0175956795215089F71123B4
:1006C00081F08081892380830FBF5C968D919C91FE
:1006D0000197F1F781E090E0C1CF2923DCCF3923E6
:1006E000E5CF9081892BEFCF20912F0230913002FE
:1006F0002817390771F480912E0220912D0290E085
:10070000805C9F4F821B910960E470E00E948C1016
:10071000089590E080E0089520912F0230913002FA
:1007200028173907B9F490912D0280912E0298175D
:1007300089F0E0912D02F0E0EC51FE4F8081209194
:100740002D0230E02F5F3F4F2F73332720932D0270
:1007500090E008958FEF9FEF089590E080E0089576
:10076000CF92DF92EF92FF928EE00E949602BC0140
:10077000990F880B990B0E94C10E20E030EC4FE7D7
:1007800054E40E94151020E030E04AEF53E40E9448
:10079000200F6B017C01C092E001D092E101E09258
:1007A000E201F092E30164EF71E080E090E00E94EA
:1007B000CD02C701B601FF90EF90DF90CF90089572
:1007C000CF93DF93EC0160E08E810E94190261E01B
:1007D0008E810E94190260E08E810E9419028BE8CE
:1007E00091E00197F1F7DF91CF910895CF92DF92D9
:1007F000EF92FF920F931F93CF93DF936C017C01D5
:1008000087E0E80EF11CD0E0C0E0062F10E0B80150
:100810000C2E02C0759567950A94E2F76170F70196
:1008200081917F010E9419022196C430D10579F788
:10083000C601DF91CF911F910F91FF90EF90DF9054
:10084000CF900C94E003CF92DF92EF92FF920F9340
:100850001F93CF93DF93EC01F62E642F8C810E94BF
:1008600019028D818F3F19F060E00E9419020F2D4F
:1008700010E08F8584FF25C06E0187E0C80ED11C73
:10088000F12CE12CB8010E2C02C0759567950A94E5
:10089000E2F76170F60181916F010E941902FFEF8A
:1008A000EF1AFF0A88E0E816F10461F7CE01DF9144
:1008B000CF911F910F91FF90EF90DF90CF900C940C
:1008C000E003B80184E0759567958A95E1F7CE015C
:1008D0000E94F6036F2DCE01DF91CF911F910F91F2
:1008E000FF90EF90DF90CF900C94F60340E0682FDC
:1008F00080E193E00C942304CF93DF93823029F4BA
:1009000090911F03986090931F038093230310928C
:10091000240380E48093250380E18093260380E50F
:100920008093270361E0809114030E946502809107
:1009300015038F3F19F061E00E94650261E080912C
:1009400016030E946502C0E1D3E09E0120513340AE
:1009500080911F0384FD0BC084E090E0219628174E
:10096000390744F461E08E810E946502EECF88E091
:1009700090E0F4CF8BE39DE00197F1F760E0809188
:1009800014030E94190260E0809116030E9419026C
:10099000809115038F3F19F060E00E941902809149
:1009A0001F0384FD39C063E080E193E00E94F603F9
:1009B000CBE4D6E4CE010197F1F763E080E193E068
:1009C0000E94F6032197F1F763E080E193E00E9433
:1009D000F60383E592E00197F1F762E080E193E0AE
:1009E0000E94F60380911F0380620E94760484E0D7
:1009F000809320038CE00E94760481E00E947604BC
:100A00008BE39FE10197F1F782E08093210386E079
:100A1000DF91CF910C94760480620E9476048BE47F
:100A200096E40197F1F780911F0380620E9476049B
:100A300083E592E00197F1F780911F0380620E94A5
:100A40007604D0CF41E00E94230481E090E0089535
:100A5000CF93DF93EC0188819981009711F00E9478
:100A60005611198218821D821C821B821A82DF9104
:100A7000CF910895FB0101900020E9F73197AF0174
:100A8000461B570BDC01ED91FC910280F381E02DB8
:100A90000994CF93DF936AE181EF92E00E941803FB
:100AA000EC0167E371E081EF92E00E943A058C0F60
:100AB0009D1FDF91CF910895CF93DF93BC0181EF0C
:100AC00092E00E943A05EC0167E371E081EF92E069
:100AD0000E943A058C0F9D1FDF91CF9108950F93CF
:100AE0001F93CF93DF93EC0188819981009759F090
:100AF0002A813B812617370730F081E0DF91CF91C3
:100B00001F910F9108958B016F5F7F4F0E94DF113E
:100B1000009759F0998388831B830A832C813D8138
:100B2000232B59F7FC011082E8CF80E0E7CFEF924A
:100B3000FF920F931F93CF93DF93EC01E090EB02B2
:100B4000F090EC02E114F10421F10091EF02109118
:100B5000F00201151105A9F08C819D81080F191F64
:100B6000B801CE010E946F05882399F02881398150
:100B70008C819D81B701820F931F0E94A5121D8356
:100B80000C83CE01DF91CF911F910F91FF90EF90D9
:100B90000895CE010E942805F4CFEF92FF920F93A3
:100BA0001F93CF93DF93EC017B01198218821B8284
:100BB0001A821D821C82FB0101900020E9F7319707
:100BC0008F01061B170BB8010E946F05811109C028
:100BD000CE01DF91CF911F910F91FF90EF900C9478
:100BE00028051D830C83B70188819981DF91CF91FE
:100BF0001F910F91FF90EF900C94A5121F920F92EE
:100C00000FB60F9211242F933F934F935F936F93DF
:100C10007F938F939F93AF93BF93EF93FF938091B5
:100C2000360290913702A0913802B0913902892B97
:100C30008A2B8B2BD1F190913102E0913202F0910D
:100C40003302808189278083809136029091370218
:100C5000A0913802B0913902181619061A061B061F
:100C60009CF48091360290913702A0913802B091A5
:100C700039020197A109B109809336029093370296
:100C8000A0933802B0933902FF91EF91BF91AF91D9
:100C90009F918F917F916F915F914F913F912F9194
:100CA0000F900FBE0F901F90189580910001E0E803
:100CB000F1E0E4919FEF90930001E13051F030F0CA
:100CC000E23069F060E00E941902DECF10926E00FF
:100CD000F9CF90916F009D7F90936F00F3CF90912B
:100CE00070009D7F9093700091E09093B000909180
:100CF000B100987F94609093B1001092B300E2CF5E
:100D00001F920F920FB60F9211242F933F934F9380
:100D10005F936F937F938F939F93AF93BF93EF9363
:100D2000FF938EE492E00E948A01FF91EF91BF91C0
:100D3000AF919F918F917F916F915F914F913F9173
:100D40002F910F900FBE0F901F9018951F920F922A
:100D50000FB60F9211242F938F939F93EF93FF93CE
:100D6000E0915E02F0915F028081E0916402F09177
:100D7000650282FD1BC09081809167028F5F8F7337
:100D800020916802821741F0E0916702F0E0E25B97
:100D9000FD4F958F80936702FF91EF919F918F9107
:100DA0002F910F900FBE0F901F9018958081F4CF58
:100DB0001F920F920FB60F9211242F933F938F9390
:100DC0009F93AF93BF938091250290912602A091AB
:100DD0002702B09128023091240223E0230F2D37FF
:100DE00058F50196A11DB11D209324028093250280
:100DF00090932602A0932702B093280280912902A3
:100E000090912A02A0912B02B0912C020196A11D73
:100E1000B11D8093290290932A02A0932B02B093D4
:100E20002C02BF91AF919F918F913F912F910F9085
:100E30000FBE0F901F90189526E8230F0296A11D54
:100E4000B11DD2CF1F920F920FB60F9211242F9384
:100E50003F934F935F936F937F938F939F93AF9342
:100E6000BF93EF93FF93E0912F02F0913002309700
:100E700049F0A685B7858585968D91FF14C09C9114
:100E80008923A1F4FF91EF91BF91AF919F918F9131
:100E90007F916F915F914F913F912F910F900FBE76
:100EA0000F901F9018959C91892361F7A389B489AD
:100EB0009C918589809589238C9386899789019750
:100EC000F1F7608D718DA685B785558538E020E0F6
:100ED000CB010197F1F7822F90E095958795282F08
:100EE0004C91452309F02068315091F7868D81FDA2
:100EF000209580912E0290E001968F739927309172
:100F00002D02381799F0A0912E02B0E0AC51BE4FDF
:100F10002C9380932E02828D938D0197F1F7A389F4
:100F2000B4898C919589892B8C93ACCF868D816007
:100F3000868FF1CFCF92DF92EF92FF921092510203
:100F40001092500298EEC92E93E0D92EE12CF12C8C
:100F5000C0925202D0925302E0925402F092550293
:100F60008BE091E090934F0280934E0285EC90E0ED
:100F700090935B0280935A0284EC90E090935D0220
:100F800080935C0280EC90E090935F0280935E021D
:100F900081EC90E0909361028093600282EC90E09B
:100FA000909363028093620286EC90E090936502D6
:100FB0008093640210926702109268021092690294
:100FC00010926A0210921303109212038FE291E0C2
:100FD00090931103809310038CE0809314038FEFA0
:100FE000809315038BE08093160385E080931703AD
:100FF00084E08093180383E08093190382E0809358
:101000001A0310921B0310921C0310921D031092DE
:101010001E0310921F0381E00E947C041092F402D0
:101020001092F302C092F502D092F602E092F7021B
:10103000F092F8028DE191E09093F2028093F10238
:10104000109208031092070310920A0310920903EA
:1010500010920C0310920B0310920E0310920D03CA
:1010600060910F036E7F6D7F60930F0366956170D3
:1010700081E068278AE00E94190261E08AE00E940C
:101080006502E3EBF1E0E491E0930103EFE9F1E0C5
:10109000E491F0E0EE0FFF1FE557FE4F859194912C
:1010A000909303038093020360E089E00E9465024D
:1010B00080910F0381FD04C061E089E00E94190264
:1010C00089E08093FD02E2EBF1E0E491E093FE021F
:1010D000EEE9F1E0E491F0E0EE0FFF1FEF57FE4F75
:1010E00085919491909300038093FF0269E371E0EE
:1010F0008BEE92E0FF90EF90DF90CF900C94CD05B7
:10110000CF93DF93CDB7DEB7A7970FB6F894DEBFC6
:101110000FBECDBF789484B5826084BD84B58160F4
:1011200084BD85B5826085BD85B5816085BD8091B2
:101130006E00816080936E0010928100809181002A
:101140008260809381008091810081608093810022
:10115000809180008160809380008091B1008460E4
:101160008093B1008091B00081608093B000809145
:101170007A00846080937A0080917A008260809304
:101180007A0080917A00816080937A0080917A0061
:10119000806880937A001092C10082E00E947C04F3
:1011A00060E08EE00E94650210920C0310920B0327
:1011B00010920A0310920903109208031092070379
:1011C0008DE991E090930E0380930D039091FD02C1
:1011D000963108F047C02DEB30E0309308032093A0
:1011E00007032BE931E030930A03209309032CE233
:1011F00031E030930C0320930B032091680084E0CE
:10120000983048F031E09E3008F430E081E001C0D1
:10121000880F3A95EAF7822B809368002DE630E03C
:10122000983050F02BE630E09E3030F02CE630E085
:10123000963110F030E020E0309305032093040352
:10124000292F30E0983008F011C181E001C0880FEB
:101250009A95EAF78093060380910D0390910E030F
:101260000197F1F780910B0390910C03892B49F1C1
:10127000E0912F02F091300282E0E13FF80709F19E
:10128000309739F0A389B4899C9185898095892309
:101290008C9380910F038E7F80930F0310922E0208
:1012A00010922D0281EF92E09093300280932F02F2
:1012B000E0910403F0910503808190910603892B4E
:1012C0008083E0915E02F0915F0282E08083E09192
:1012D0005A02F0915B021082E0915C02F0915D0293
:1012E0008FEC808310926602E0916202F0916302BB
:1012F00086E08083E0916002F091610280818061EC
:101300008083E0916002F091610280818860808337
:10131000E0916002F0916102808180688083E091B9
:101320006002F091610280818F7D80836AE371E0C9
:1013300081EF92E00E943A0568EE73E080E090E071
:101340000E94CD0240E8242E41E0342E882483946C
:10135000912C68EB462E6BE0562E612C712C36EBEF
:10136000A32E31E0B32EE1E0809123038111E0E070
:10137000E195F0E0E05FFC4F848980680E9476048C
:101380006DE371E080E193E00E943A050E94B003B2
:101390006B017C01C0924202D0924302E09244026F
:1013A000F09245028FE00E9496028C0120E030E02E
:1013B00044E352E4C701B6010E94871018167CF07E
:1013C000B801110F880B990B0E94C10E20E030E08C
:1013D00046E953E40E94871018160CF0D4C180919E
:1013E0004C0290914D02892B09F0CDC190924D0293
:1013F00080924C02E0912303E23008F044C0E150B7
:10140000F0E0E05FFC4F848980680E9476046FE41E
:1014100071E080E193E00E943A05809100018D30F7
:10142000A1F5F101149117FDD1C061E08DE00E949A
:101430006502112309F49AC0123009F0ABC0809103
:10144000B100887F83608093B10089EF8093B300FF
:1014500040923602509237026092380270923902FE
:1014600080917000826080937000B0C09E3040F424
:101470002850310981E001C0880F2A95EAF7EACEA9
:101480002E503109F7CFE1E0BBCF8F3F09F09EC06E
:101490008DE080930001F10114911F3F09F496C083
:1014A000113021F150F0123009F43EC017FD8EC00A
:1014B00061E08DE00E946502BFCF14BC15BC84B50D
:1014C000826084BD85B5816085BDE2EAF1E08491EA
:1014D000E82FF0E0EE0FFF1FE557FE4F8591949146
:1014E000F50184918093350210E09FCF1092800027
:1014F00010928100809181008860809381008091AA
:101500008100816080938100E2EAF1E08491E82F1C
:10151000F0E0EE0FFF1FE557FE4F85919491F50126
:1015200084918093340281CF1092B0001092B10068
:101530008091B00082608093B0008091B1008160A2
:101540008093B100E2EAF1E08491E82FF0E0EE0F41
:10155000FF1FE557FE4F859194919093330280933E
:101560003202F5018491809331025FCF85B5887F87
:10157000836085BD8CE787BD40923E0250923F025A
:10158000609240027092410280916E00826080936E
:101590006E001CC0113009F04DC180918100887F20
:1015A0008160809381008FE39FE190938900809315
:1015B000880040923A0250923B0260923C02709244
:1015C0003D0280916F00826080936F000E94B003A3
:1015D0001BA21AA21DA21CA21FA21EA28E010F5F97
:1015E0001F4F22E044E00E94650C7C01009779F0D7
:1015F000FC0101900020E9F731978F01081B190BBE
:10160000B801CE0182960E946F0581111BC1CE01E7
:1016100082960E9428058091EB029091EC0200973F
:1016200009F41AC16AA17BA16115710509F412C1FF
:101630004091ED025091EE022EA13FA142175307B7
:1016400008F408C10E94A5128EA19FA19093F002F8
:101650008093EF028AA19BA10E94561185E691E03A
:101660000E945C0568EE73E080E090E00E94CD028D
:1016700081E791E00E945C0568EE73E080E090E015
:101680000E94CD028BE791E00E945C0568EE73E05A
:1016900080E090E00E94CD0264E971E0CE01019605
:1016A0000E94CD05CE0101960E949705FC01448160
:1016B00055816081718181EF92E00E940C018981E6
:1016C0009A810E94561164EF71E080E090E00E94E0
:1016D000CD020E94490560ED77E080E090E00E9435
:1016E000CD0285E691E00E945C0568EE73E080E043
:1016F00090E00E94CD0281E791E00E945C0568EED7
:1017000073E080E090E00E94CD0283EB91E00E94C4
:101710005C0568EE73E080E090E00E94CD0264E931
:1017200071E0CE0101960E94CD05CE0101960E9486
:101730009705FC01448155816081718181EF92E0C0
:101740000E940C0189819A810E94561168EE73E013
:1017500080E090E00E94CD020E94490568EE73E0AF
:1017600080E090E00E94CD02809146029091470275
:101770000196909347028093460260EA7FE080E002
:1017800090E00E94CD0280914C0290914D02019711
:1017900009F043C00E94B0036B017C01C092480273
:1017A000D0924902E0924A02F0924B028FE00E94EE
:1017B00096028C0120E030E04CE052E4C701B60113
:1017C0000E94BA0E87FF29C0B801110F880B990B30
:1017D0000E94C10E20E030E044E353E40E94BA0EC0
:1017E00087FF1BC0E0912303E23008F04AC0E150BC
:1017F000F0E0E05FFC4F848980680E9476046CEC26
:1018000071E080E193E00E943A0510924702109245
:10181000460210924D0210924C0280E090E0892B1B
:1018200009F4A1CD0E947601882309F498CD0E9485
:10183000000095CD123021F01111C8CE8FE39BCE60
:101840008FE304CE1FA30EA3B7018AA19BA10E9420
:10185000A512E1CE0E9456118AA19BA19093EC02A1
:101860008093EB028CA19DA19093EE028093ED02F8
:101870008EA19FA19093F0028093EF021BA21AA267
:10188000E9CEE1E0B5CF8091EB029091EC020E94AD
:1018900056118DE191E09093F2028093F1028091D4
:1018A0002F0290913002815F924071F4E091040325
:1018B000F0910503908180910603809589238083B0
:1018C0001092300210922F020895EF920F931F93FF
:1018D000CF93DF93E80134E047FD34E1042E000CA0
:1018E000550B57FF03C0519541955109E32E022F27
:1018F000242FAE010E94830CCE01DF91CF911F9166
:101900000F91EF900895A9E0B0E0E9E8FCE00C94B5
:10191000E40F6A01F22EB02E102FFBE3AF2EA016BB
:1019200008F41BE31F5F012F27E0AE014F5F5F4FFD
:101930000E94E20DBC018981982F9970913009F4C1
:101940003FC09BE2E1FC04C09E2D9170E0FC3AC0D8
:101950005E2D5071E82FE87083FF46C084E091113E
:1019600001C083E0EF2DE81B8F1508F0E0E0D60101
:101970008E2F20E2552351F1992329F0D6019C9313
:10198000C60101966C0196012D5F3F4FE2FE24C017
:101990008EE4D6018C9391E411969C931197129644
:1019A0008C93D9018E2F90E281111BC0E20FF32F8F
:1019B000F11D10828EEF9FEF2996ECE00C94001041
:1019C0009DE2C6CF90E2C4CF2D9381508111FCCF10
:1019D000CE0ED11CE0E0D0CF8EE6D6018C9391E6FE
:1019E000DBCF9D938150E0CF482F447082FF3DC0F4
:1019F00084E0911101C083E08F1510F4EF2DE81BF6
:101A0000D6018E2F20E2552309F1992329F0D60122
:101A10009C93C60101966C0196012D5F3F4FE2FE3B
:101A20001BC089E4D6018C938EE411968C93119798
:101A300086E412968C93D9018E2F90E2882309F4C4
:101A4000B5CF9D938150FACF2D9381508111FCCF5A
:101A5000CE0ED11CE0E0D9CF89E6D6018C938EE67C
:101A600011968C93119786E6E4CF9B0177FF02C015
:101A700030E020E0A1E0B0E0911102C0B0E0A0E0D1
:101A8000F9013196AE0FBF1F8B2C912CBB2009F4AE
:101A900061C05401EFEFAE1ABE0AAA0DBB1DFA16C3
:101AA0001B0619F014F04F2D4A1B511188C0E3FC9E
:101AB00059C07601A42FB0E2A1114FC0C40ED11CB1
:101AC000992309F45BC040E0D6011196F60190839A
:101AD0006D01552309F448C0012F060F9A81582F34
:101AE000507184FF03C0913309F4015010160CF0BB
:101AF00047C0093008F008E0EEE2FE2E5B01A01AB4
:101B0000B10885019194819491082F3F320729F4FF
:101B1000D601FC92F60131966F016217730794F1BA
:101B2000021713077CF5DB01A21BB30BAA24A394B5
:101B3000B12CAC0EBD1EAA0DBB1D11968C9121506F
:101B40003109D601119628153905F4F0F601808384
:101B50006D01DBCFB12CA12CA0CFF701B1937F0198
:101B6000A150AACF9111B0CFD601942F50E302C05B
:101B70005D9391509111FCCFC40ED11C40E0ACCFCD
:101B800001E0BACF80E3DBCF6217730731F49633FD
:101B900088F4953311F4552369F0F6018083FD0133
:101BA000842F90E2811108C0A40FB11D1C9290E017
:101BB00080E002CF81E3F1CF91938150F3CF911177
:101BC00083CF8ACF283008F027E03327DA01990F36
:101BD000311D87FD916000966105710539F4326011
:101BE0002E5F3D9330E32A95E1F708959F3F30F053
:101BF00080387105610509F03C5F3C5F3D93913091
:101C000008F08068911DDF93CF931F930F93FF928D
:101C1000EF92192F987F9695E92F96959695E90F53
:101C2000FF27EE53FF4F99273327EE24FF24A70108
:101C3000E70105900894079428F4360FE71EF81E74
:101C4000491F511D660F771F881F991F0694A1F722
:101C50000590079428F4E70EF81E491F561FC11D72
:101C6000770F881F991F661F0694A1F705900794A8
:101C700028F4F80E491F561FC71FD11D880F991F42
:101C8000661F771F0694A1F70590079420F4490F6B
:101C9000561FC71FD81F990F661F771F881F0694EE
:101CA000A9F784911095177041F0D695C79557956F
:101CB0004795F794E7941A95C1F7E8E6F0E0689441
:101CC0001590159135916591959105907FE27395E9
:101CD000E118F10A430B560BC90BD009C0F7E10C10
:101CE000F11E431F561FC91FD01D7EF4703311F41F
:101CF0008A95E6CFE894015030F0080F0AF40027E7
:101D0000021708F4202F2395022F7A3328F079E365
:101D10007D932A95E9F710C07D932A9589F606945C
:101D200097956795379517951794E118F10A430B26
:101D3000560BC90BD00998F023957E9173957A3391
:101D400008F070E37C932013B8F77E9170617D9367
:101D500030F0839571E37D9370E32A95E1F71124C8
:101D6000EF90FF900F911F91CF91DF91992787FD01
:101D7000909508950E94FC0E08F481E00895E8947F
:101D800009C097FB3EF490958095709561957F4FC3
:101D90008F4F9F4F9923A9F0F92F96E9BB27939571
:101DA000F695879577956795B795F111F8CFFAF481
:101DB000BB0F11F460FF1BC06F5F7F4F8F4F9F4FB2
:101DC00016C0882311F096E911C0772321F09EE810
:101DD000872F762F05C0662371F096E8862F70E076
:101DE00060E02AF09A95660F771F881FDAF7880F50
:101DF0009695879597F90895990F0008550FAA0BA6
:101E0000E0E8FEEF16161706E807F907C0F012160D
:101E10001306E407F50798F0621B730B840B950B10
:101E200039F40A2661F0232B242B252B21F4089565
:101E30000A2609F4A140A6958FEF811D811D089502
:101E40000E94330F0C94A40F0E94960F38F00E944A
:101E50009D0F20F0952311F00C948D0F0C94930F8F
:101E600011240C94D80F0E94B50F70F3959FC1F305
:101E7000950F50E0551F629FF001729FBB27F00D38
:101E8000B11D639FAA27F00DB11DAA1F649F66278D
:101E9000B00DA11D661F829F2227B00DA11D621FDC
:101EA000739FB00DA11D621F839FA00D611D221F96
:101EB000749F3327A00D611D231F849F600D211D7A
:101EC000822F762F6A2F11249F5750409AF0F1F0FD
:101ED00088234AF0EE0FFF1FBB1F661F771F881F66
:101EE00091505040A9F79E3F510580F00C948D0F02
:101EF0000C94D80F5F3FE4F3983ED4F38695779522
:101F00006795B795F795E7959F5FC1F7FE2B880F0B
:101F1000911D9695879597F9089597F99F6780E8A1
:101F200070E060E008959FEF80EC089500240A942B
:101F30001616170618060906089500240A941216A4
:101F40001306140605060895092E0394000C11F4D7
:101F5000882352F0BB0F40F4BF2B11F460FF04C084
:101F60006F5F7F4F8F4F9F4F089557FD9058440FDD
:101F7000551F59F05F3F71F04795880F97FB991FE8
:101F800061F09F3F79F087950895121613061406A5
:101F9000551FF2CF4695F1DF08C016161706180632
:101FA000991FF1CF86957105610508940895E8940D
:101FB000BB2766277727CB0197F908952F923F9289
:101FC0004F925F926F927F928F929F92AF92BF9249
:101FD000CF92DF92EF92FF920F931F93CF93DF93F5
:101FE000CDB7DEB7CA1BDB0B0FB6F894DEBF0FBE52
:101FF000CDBF09942A88398848885F846E847D849F
:102000008C849B84AA84B984C884DF80EE80FD80A0
:102010000C811B81AA81B981CE0FD11D0FB6F89416
:10202000DEBF0FBECDBFED0108950E9429100C94B4
:10203000A40F0E949D0F58F00E94960F40F029F4C3
:102040005F3F29F00C948D0F51110C94D80F0C9414
:10205000930F0E94B50F68F39923B1F3552391F3C1
:10206000951B550BBB27AA2762177307840738F007
:102070009F5F5F4F220F331F441FAA1FA9F335D064
:102080000E2E3AF0E0E832D091505040E695001C18
:10209000CAF72BD0FE2F29D0660F771F881FBB1FD2
:1020A000261737074807AB07B0E809F0BB0B802DB0
:1020B000BF01FF2793585F4F3AF09E3F510578F0DC
:1020C0000C948D0F0C94D80F5F3FE4F3983ED4F33B
:1020D000869577956795B795F7959F5FC9F7880FB0
:1020E000911D9695879597F90895E1E0660F771F02
:1020F000881FBB1F621773078407BA0720F0621B93
:10210000730B840BBA0BEE1F88F7E09508950E94BD
:10211000FC0E08F48FEF089597FB072E16F4009439
:1021200007D077FD09D00E94A01007FC05D03EF42F
:10213000909581959F4F0895709561957F4F089573
:10214000AA1BBB1B51E107C0AA1FBB1FA617B707DD
:1021500010F0A61BB70B881F991F5A95A9F78095F9
:102160009095BC01CD010895EE0FFF1F0590F491ED
:10217000E02D09940F931F93CF93DF938230910545
:1021800010F482E090E0E0912A03F0912B0330E01C
:1021900020E0B0E0A0E0309799F42115310509F472
:1021A0004AC0281B390B24303105D8F58A819B8120
:1021B0006115710589F1FB0193838283FE0111C0D2
:1021C000408151810281138148175907E0F0481777
:1021D000590799F4109761F012960C931297139681
:1021E0001C933296CF01DF91CF911F910F910895EB
:1021F00000932A0310932B03F4CF2115310551F0DE
:102200004217530738F0A901DB019A01BD01DF0134
:10221000F801C1CFEF01F9CF90932B0380932A03EC
:10222000CDCFFE01E20FF31F81939193225031092C
:1022300039832883D7CF2091280330912903232B7A
:1022400041F420910301309104013093290320933C
:10225000280320910101309102012115310541F43B
:102260002DB73EB74091050150910601241B350B57
:10227000E0912803F0912903E217F307A0F42E1B45
:102280003F0B2817390778F0AC014E5F5F4F2417DA
:10229000350748F04E0F5F1F5093290340932803E2
:1022A000819391939FCFF0E0E0E09CCFCF93DF93B9
:1022B0000097E9F0FC01329713821282A0912A0361
:1022C000B0912B03ED0130E020E01097A1F42081C4
:1022D0003181820F931F2091280330912903281701
:1022E000390709F061C0F0932903E0932803DF91D7
:1022F000CF910895EA01CE17DF07E8F54A815B81A7
:102300009E0141155105B1F7E901FB83EA8349912B
:102310005991C40FD51FEC17FD0761F4808191819D
:102320000296840F951FE9019983888382819381A6
:102330009B838A83F0E0E0E012968D919C91139745
:102340000097B9F52D913C911197CD010296820F1E
:10235000931F20912803309129032817390739F654
:10236000309751F510922B0310922A03B093290352
:10237000A0932803BCCFD383C28340815181840FB3
:10238000951FC817D90761F44E5F5F4F8881998107
:10239000480F591F518340838A819B819383828395
:1023A0002115310509F0B0CFF0932B03E0932A03F8
:1023B0009ECFFD01DC01C0CF13821282D7CFB0E0E7
:1023C000A0E0E5EEF1E10C94E00F8C01009751F4F0
:1023D000CB010E94BA108C01C801CDB7DEB7E0E195
:1023E0000C94FC0FFC01E60FF71F9C0122503109F1
:1023F000E217F30708F49DC0D901CD91DC91119744
:10240000C617D70798F0C530D10530F3CE01049731
:102410008617970708F3C61BD70B2297C193D19352
:102420006D937C93CF010E945611D6CF5B01AC1AFD
:10243000BD0A4C018C0E9D1EA0912A03B0912B0366
:10244000512C412CF12CE12C109731F5809128036F
:10245000909129038815990509F05CC04616570626
:1024600008F058C08091010190910201009741F459
:102470008DB79EB74091050150910601841B950BC5
:10248000E817F90708F055C0F0932903E0932803F3
:10249000F90171836083A0CF8D919C911197129661
:1024A0006C90129713967C901397A815B90559F55F
:1024B0006C0142E0C40ED11CCA14DB0420F1AC0153
:1024C0004A195B09DA011296159780F062827382CD
:1024D00051834083D9016D937C93E114F10471F031
:1024E000D7011396FC93EE93129776CF22968C0F1A
:1024F0009D1FF90191838083F301EFCFF0932B03AC
:10250000E0932A0369CF4816590608F42C017D018F
:10251000D3019ACFCB010E94BA107C01009749F0F9
:10252000AE01B8010E949C12C8010E945611870199
:1025300053CF10E000E050CFFB01DC0102C001905E
:102540000D9241505040D8F70895FB01DC010190F5
:102550000D920020E1F7089510E0C0EED0E004C035
:10256000FE010E94B4102196C13ED107C9F7F8942C
:02257000FFCF9B
:10257200FF00002C03800000000000AC010C0139B8
:1025820001F9016A0148015C010000000018030C16
:1025920001AD03170374038C03FF02000000002245
:1025A200050C01AD030B010D0A004154004669728E
:1025B20065205363616E202D204F4E20202000465F
:1025C20069726520416C6572742120534D5320530A
:1025D200656E74210041542B4950523D39363030DA
:1025E2000041542B434D47463D310041542B434D4E
:1025F2004753203D222B393233323335303030339A
:1026020033362200466972652044657465637465D9
:102612006420696E20726F6F6D2021202C2054205F
:102622003A200041542B434D4753203D222B39324F
:1026320033333438313132353830220046697265ED
:102642002053687574212053414645204E4F570050
:00000001FF
